:100000000C94CE000C94F6000C94F6000C94F600C0
:100010000C94F6000C94F6000C94F6000C94F60088
:100020000C94F6000C94F6000C94C6100C94351148
:100030000C94F6000C94F6000C94F6000C94F60068
:100040000C94F6000C94F6000C94F6000C94F60058
:100050000C94F6000C94F6000C94F6000C94BF136C
:100060000C94F6000C948D130C9467130C94F6000A
:100070000C94F6000C94F6000C94F6000C94F60028
:100080000C94F6000C94F6000C94F6000C94F60018
:100090000C94F6000C94F6000C94F6000C94F60008
:1000A0000C94F6000C94F6000C94F600000000028C
:1000B00000090F0000030401000C00000000000014
:1000C0000000000000000000000000080B00020219
:1000D00002000009040000010202000005240010D3
:1000E000010524010101042402060524060001077C
:1000F00005810310004009040100020A0000000706
:1001000005020240000007058302400000040309C5
:100110000412010002EF0201404123368000010178
:1001200002030141726475696E6F204C4C430041BB
:10013000726475696E6F204C656F6E6172646F00DA
:1001400000000000250028002B002E0031000000D8
:100150000000240027002A002D00300004040404BD
:10016000040304050202020204030202020206065C
:100170000606060604040202020404040802011032
:1001800040804010204080408008020401804020D0
:1001900010020110801020404020091411241FBEBD
:1001A000CFEFDAE0DEBFCDBF12E0A0E0B1E0EEECD1
:1001B000F2E302C005900D92A43EB107D9F72CE0FE
:1001C000A4EEB2E001C01D92AE3BB207E1F710E031
:1001D000CEECD0E004C02197FE010E940F17CD3C69
:1001E000D107C9F70E9405150C9465190C940000FD
:1001F00090E0FC01E558FE4F2491845A9E4FFC018B
:100200008491882399F090E0880F991FFC01E25BAC
:10021000FE4FA591B491FC01E05CFE4F8591949155
:100220008FB7F894EC91E22BEC938FBF0895FC010B
:1002300080910203882311F13FB7F89482E0809304
:10024000E9002091F200822F90E01816190614F4AC
:1002500081E090E0882339F0289844E64093010338
:100260004091F1004083222339F02091F2002111C6
:1002700003C02BE62093E8003FBF08958FEF9FEF68
:1002800008952FB7F89483E08093E9009091E800F7
:10029000892F807295FF04C09091F20080E4891B41
:1002A0002FBF08958091F90281110DC082E08093E3
:1002B000F50284E08093F6021092F8021092F702A1
:1002C00081E08093F90285EF92E00895CF93DF9368
:1002D0001F92CDB7DEB76983DC01ED91FC910280FE
:1002E000F381E02D41E050E0BE016F5F7F4F099543
:1002F0000F90DF91CF91089583E08093E900809182
:10030000F200882319F08AE38093E80008950E94A0
:10031000410190E00895CF93DF931F92CDB7DEB7F0
:10032000FC018485958597FD08C02FEF3FEF358749
:1003300024870F90DF91CF910895CE0101960E94FE
:100340001701019719F4898190E0F3CF8FEF9FEFA8
:10035000F0CF0F931F93CF93DF931F92CDB7DEB7EC
:100360008C01FC018485958597FF0BC0CE01019619
:100370000E941701019771F4898190E0F801958737
:100380008487F801848595850F90DF91CF911F9127
:100390000F9108958FEF9FEFF1CFFC018485958534
:1003A00097FD0BC09FB7F89482E08093E90080919D
:1003B000F2009FBF90E0019608959FB7F89482E005
:1003C0008093E9008091F2009FBF90E008954091F2
:1003D000EF025091F0022091ED023091EE024217AF
:1003E0005307B4F49091E8009570E1F39091E80020
:1003F00092FD19C08093F1008091EF029091F0027C
:1004000001968F739927892B19F48EEF8093E8005A
:100410008091EF029091F00201969093F002809308
:10042000EF0281E0089580E00895EF92FF920F932C
:100430001F93CF93DF93F82E192FE62E042F81E020
:10044000860F880F0E94E70183E00E94E701CF2D0D
:10045000D12FEC0EFD2EF11CCE15DF05B9F007FFF4
:1004600013C0FE0184910E94E701182F80E00E94D2
:10047000E701812321968111EFCFDF91CF911F9169
:100480000F91FF90EF9008958881EDCF81E0F5CF37
:10049000DF92EF92FF920F931F93CF93DF93D82EAB
:1004A0008A01EB017B01E40EF51ECE15DF0559F044
:1004B000D7FE12C0FE0184910E94E70121968111AE
:1004C000F4CF0FEF1FEFC801DF91CF911F910F9174
:1004D000FF90EF90DF9008958881EECF0F931F93E8
:1004E000CF93DF931F92CDB7DEB782E0898342E4DA
:1004F00050E06BEC70E080E80E9448020E945201DC
:10050000DC0112960D911C910115110589F0D8019D
:10051000ED91FC910280F381E02DBE016F5F7F4F72
:10052000C801099597FD04C0F80100851185ECCF3D
:1005300089810F90DF91CF911F910F9108956150A4
:1005400030F02091F100FC0120830196F8CF28982B
:1005500084E6809301030895AF92BF92CF92DF9219
:10056000EF92FF920F931F93CF93DF936C017B0168
:100570008B01040F151FEB015E01AE18BF08C017F9
:10058000D10759F06991D601ED91FC910190F0816C
:10059000E02DC6010995892B79F7C501DF91CF912F
:1005A0001F910F91FF90EF90DF90CF90BF90AF9091
:1005B0000895FC01538D448D252F30E0842F90E069
:1005C000821B930B541710F0CF960895019708954E
:1005D000FC01918D828D981761F0A28DAE0FBF2F17
:1005E000B11D5D968C91928D9F5F9F73928F90E06D
:1005F00008958FEF9FEF0895FC01918D828D9817DC
:1006000031F0828DE80FF11D858D90E008958FEF18
:100610009FEF0895FC01918D228D892F90E0805CE1
:100620009F4F821B91098F739927089583E593E06B
:100630000E940A0321E0892B09F420E0822F08950B
:1006400080E090E0892B29F00E94160381110C9420
:1006500000000895FC01A48DA80FB92FB11DA35A65
:10066000BF4F2C91848D90E001968F739927848FD2
:10067000A689B7892C93A089B1898C9182748C93B7
:10068000938D848D981306C00288F389E02D8081B4
:100690008F7D80830895EF92FF920F931F93CF93E6
:1006A000DF93EC0181E0888F9B8D8C8D981319C0AE
:1006B000E889F989808185FF14C09FB7F894EE8995
:1006C000FF896083E889F9898081827480839FBF74
:1006D00081E090E0DF91CF911F910F91FF90EF901B
:1006E0000895F62E0B8D10E00F5F1F4F0F7311272B
:1006F000E02E8C8D8E110CC00FB607FCFACFE88966
:10070000F989808185FFF5CFCE010E942A03F1CFC0
:10071000EB8DEC0FFD2FF11DE35AFF4FF0829FB7D9
:10072000F8940B8FEA89FB8980818062CFCFCF93C9
:10073000DF93EC01888D8823B9F0AA89BB89E88909
:10074000F9898C9185FD03C0808186FD0DC00FB6AF
:1007500007FCF7CF8C9185FFF2CF808185FFEDCF2D
:10076000CE010E942A03E9CFDF91CF910895282F6F
:1007700030E0F901E455FF4F9491F901E558FE4F3F
:100780008491245A3E4FF9012491222309F430C068
:100790009923E9F091509F30D0F4E92FF0E0ED5229
:1007A000FC4F0C940F1701040504E203F903FD0349
:1007B000E703E703E70308040E04120416041C040D
:1007C000E7032004909180009F7790938000E22FB0
:1007D000F0E0EE0FFF1FE05CFE4FA591B4919FB7D4
:1007E000F894EC91611132C080958E238C939FBF59
:1007F0000895909180009F7DE8CF90918000977F31
:10080000E4CF94B59F7794BDE2CF94B59F7DFBCFA5
:10081000909190009F7790939000D9CF9091900005
:100820009F7DF9CF90919000977FF5CF9091C00078
:100830009F779093C000CBCF9091C0009F7DF9CF60
:100840009091C200977F9093C200C1CF8E2BCECFE4
:100850001F93CF93DF93182FEB010E94F80020978E
:1008600039F460E0812FDF91CF911F910C94B70391
:10087000CF3FD10511F461E0F5CFE12FF0E0E45571
:10088000FF4FE491E150EF3008F07FC0F0E0E55B0E
:10089000FB4F0C940F175A046204670471047B0425
:1008A000C504C504C50485048F049904A304B004D9
:1008B000C504B80484B5806884BDC7BDDF91CF91FD
:1008C0001F91089584B5806284BDC8BDF7CF809123
:1008D0008000806880938000D0938900C093880056
:1008E000EDCF80918000806280938000D0938B0058
:1008F000C0938A00E3CF809180008860809380005D
:10090000D0938D00C0938C00D9CF809190008068E7
:1009100080939000D0939900C0939800CFCF80919E
:100920009000806280939000D0939B00C0939A00C7
:10093000C5CF80919000886080939000D0939D00F7
:10094000C0939C00BBCF8091C00080688093C000A2
:100950008091C0008F7B8093C000C093CF00AECF4A
:100960008091C00080628093C000C093D000A6CF69
:100970008091C20088608093C2008091C2008B7F0A
:100980008093C200C093D20099CFC038D1050CF03B
:1009900072CF67CF3FB7F8948091E9029091EA0255
:1009A000A091EB02B091EC0226B5A89B05C02F3FA9
:1009B00019F00196A11DB11D3FBFBA2FA92F982F85
:1009C0008827BC01CD01620F711D811D911D42E080
:1009D000660F771F881F991F4A95D1F70895CF9208
:1009E000DF92EF92FF920E94CA046B017C010E9489
:1009F000CA046C197D098E099F09683E7340810500
:100A00009105A8F3FF90EF90DF90CF9008958F921B
:100A10009F92AF92BF92CF92DF92EF92FF920F938D
:100A20001F93CF93DF936C017B018A0180910B01AF
:100A3000882309F458C080910203882309F453C025
:100A40008091F40280FF05C08091E0008260809375
:100A5000E000E801B12C8AEFA82E93E0892E2AE36A
:100A6000922E209711F4BB20B9F10E94410181110F
:100A700006C0AA94AA20B9F10E94EF04F2CF8C1705
:100A80001D0611F00CF08C2F9FB7F8948092E900AE
:100A90002091E80025FD02C09FBFE3CF282F30E062
:100AA000C21BD30BF701815020F041914093F1001C
:100AB000FACFE20EF31EBB2021F09092E800B12C99
:100AC000EBCF8091E80085FDE7CF9092E800BB2452
:100AD000B394209709F3F3CF5D9884E68093F302F3
:100AE000101611063CF081E090E0F60193838283BA
:100AF00010E000E0C801DF91CF911F910F91FF90AE
:100B0000EF90DF90CF90BF90AF909F908F9008951F
:100B10002FB7F8946091E5027091E6028091E702A8
:100B20009091E8022FBF08958A57974FFC0180816A
:100B300008958BEA91E008958CEC91E00895FC0112
:100B4000868997890895AF92BF92CF92DF92EF92F4
:100B5000FF920F931F93CF93DF9300D000D01F928B
:100B6000CDB7DEB7643671054CF0FC01EA57F74F9C
:100B70002081F12CE12C222309F476C0DA017B01DB
:100B80008C01BC01615E7B4FED91FC910190F08185
:100B9000E02DCA010995680128EEC21A2BEFD20A8E
:100BA0002FEFD6012C93F801E75EFB4F2EEF208349
:100BB00031968083319690833196292F280F209586
:100BC00020833196E0821696FC9245E050E030E0BA
:100BD00020E0DC011696A417B50734F06191260FCA
:100BE000311D4F5F5F4FF7CF7C01B8E0EB0EF11C7A
:100BF000800F911FFC01E15EFB4F20952083E1E017
:100C0000EE16E4E0FE06B4F45601C5018C199D0908
:100C10008E159F054CF5D80112968D919C91F5018A
:100C200061915F01DC01ED91FC910190F081E02D7B
:100C30000995EBCF8AE491E09A83898383E08B83E3
:100C400082EE91E09D838C83D801ED91FC9101901F
:100C5000F081E02DAE014F5F5F4F67E070E0C801AB
:100C60000995EE24EA94FE2CC7010F900F900F9087
:100C70000F900F90DF91CF911F910F91FF90EF9008
:100C8000DF90CF90BF90AF9008950F931F93CF93B5
:100C9000DF93CDB7DEB72A970FB6F894DEBF0FBE4D
:100CA000CDBF8C018EE391E09A8389831B821C82E5
:100CB0001D821E821F82188619861A86D801ED9120
:100CC000FC910190F081E02DAE014F5F5F4F6AE033
:100CD00070E0C80109950E948805F8016087718756
:100CE000828793872A960FB6F894DEBF0FBECDBFDA
:100CF000DF91CF911F910F910895CF92DF92EF92E4
:100D0000FF92DC011D921D921D921C921397FB0114
:100D100030E020E0419150E0022E02C0440F551F08
:100D20000A94E2F7052E000C660B770BCD90DD9050
:100D3000ED90FC9013974C295D296E297F294D93E6
:100D40005D936D937C931397285F3F4F203231055D
:100D500009F7FF90EF90DF90CF900895FC0140835A
:100D600051831282138208950F931F93CF93DF93C1
:100D70008C01FC0162857385848595850E944D16E2
:100D8000C62FF80166817781808591850E944D1676
:100D9000D62FF80162817381848195810E944D165E
:100DA00070E089E00E9428046D2F70E08AE00E94C4
:100DB00028046C2F70E08BE0DF91CF911F910F9191
:100DC0000C9428048BE192E0089582E191E008956B
:100DD0008CE392E008958DE592E008954F925F9242
:100DE0006F927F928F929F92AF92BF92EF92FF92FB
:100DF0000F931F93CF93DF9300D000D0CDB7DEB712
:100E00007C018B01FB018191BF01F7018283CE013F
:100E100001960E947D0689819A81AB81BC814C013B
:100E20005D01F5E08F0E911CA11CB11CA8014C5F67
:100E30005F4FFA0125E030E02901712C612C481444
:100E400059046A047B0428F4618161932F5F3F4F4A
:100E5000F3CFF801E80FF91F1482F701548343839D
:100E600005960F900F900F900F90DF91CF911F91EB
:100E70000F91FF90EF90BF90AF909F908F907F90D9
:100E80006F905F904F90089580E792E0089581E918
:100E900092E008954F925F926F927F928F929F920D
:100EA000AF92BF92CF92DF92EF92FF920F931F9378
:100EB000CF93DF93CDB7DEB72C970FB6F894DEBF94
:100EC0000FBECDBF7C018B01DB018C9190E0F7015F
:100ED0009383828311962C91922B938382836E5FEE
:100EE0007F4FCE0101960E947D0689809A80AB805B
:100EF000BC8024013501F6E04F0E511C611C711CB1
:100F000098012B5F3F4FF90186E090E0AC0170E063
:100F100060E0441555056605770520F4418141934D
:100F20000196F4CFB4016A5F7F4FF801E80DF91D17
:100F30001582D70115963C932E931497600F711F5D
:100F4000CE0105960E947D06BAE08B0E911C4D8065
:100F50005E806F807884C401092C000CAA0BBB0B47
:100F60005C016D01A40CB51CC61CD71CF801E80D72
:100F7000F91DAF01401B510B70E060E04A155B05A5
:100F80006C057D0538F42191AF0142505109DA0119
:100F90002C93EFCF480C591CB801640D751DFB0153
:100FA00031971082C4010197800F911FF701978339
:100FB0008683CE0109960E947D0692012C5F3F4FE9
:100FC00089849A84AB84BC84A901032E000C660B2F
:100FD000770B480D591D6A1D7B1DF801E20FF31FA9
:100FE000CF01801B910BB0E0A0E084179507A60706
:100FF000B70728F48191DF0112978C93F1CFC901D3
:10100000880D991DF801E80FF91FDF0111971C9257
:1010100021503109020F131FD70119961C930E930B
:1010200018972181428150E070E060E0BA015527B5
:101030004427522B2081422B2381722BF7014287B8
:1010400053876487758704962C960FB6F894DEBF95
:101050000FBECDBFDF91CF911F910F91FF90EF9009
:10106000DF90CF90BF90AF909F908F907F906F90C8
:101070005F904F9008958AEA92E008958BEC92E099
:101080000895FC01DB014C9150E070E060E0428388
:1010900053836483758311968C911197582B4283E7
:1010A00053836483758312968C911297682B4283C5
:1010B00053836483758313968C911397782B4283A3
:1010C00053836483758314964C91149750E070E0B9
:1010D00060E0468357836087718715968C911597DA
:1010E000582B468357836087718716968C91169785
:1010F000682B468357836087718717968C91782B6E
:10110000468357836087718788E090E00895DC010B
:10111000FB0112968C911297808313968C911397F2
:10112000818314968C911497828315968C911597D0
:10113000838316968C911697848317968C911797B4
:10114000858318968C911897868319968C9187833E
:1011500088E090E00895CF92DF92EF92FF920F9394
:101160001F93FC01DB01C3800C2D10E030E020E078
:1011700045E036952795179507954A95D1F70D9334
:101180001D932D933C9313978481C82ED12CF12C61
:10119000E12C53E0CC0CDD1CEE1CFF1C5A95D1F762
:1011A000C02AD12AE22AF32ACD92DD92ED92FC9256
:1011B00013978581082F10E030E020E06BE0000FEE
:1011C000111F221F331F6A95D1F70C291D292E29C3
:1011D0003F290D931D932D933C931397468150E027
:1011E00070E060E083E1440F551F661F771F8A950A
:1011F000D1F74427552768777727042B152B262B03
:10120000372B0D931D932D933C931397478150E0FB
:1012100070E060E094E0440F551F661F771F9A95B9
:10122000D1F7407F577066277727C680D12CF12CE5
:10123000E12C84E0F694E794D794C7948A95D1F78B
:101240004C295D296E297F294115510561057105DC
:10125000A1F0405853406109710997E1440F551FAF
:10126000661F771F9A95D1F7402B512B622B732B5A
:101270004D935D936D937C931397478150E070E09D
:1012800060E0742F66275527442744275527662793
:1012900070780D911D912D913C911397402B512BFE
:1012A000622B732B4D935D936D937C93139788E022
:1012B00090E01F910F91FF90EF90DF90CF900895F5
:1012C000EF92FF920F931F93CF93DF938C017B01DB
:1012D000BC016E5F7F4FC7010E94AB08EC01B801F3
:1012E0006A5F7F4FC7018C0F9D1F0E94AB08C80F1C
:1012F000D91FB801665F7F4FC7018C0F9D1F0E94E9
:10130000AB088C0F9D1FDF91CF911F910F91FF9024
:10131000EF9008950F931F93CF93DF938C01EC010F
:101320002696CE010E946009D8015496ED91FC9159
:10133000CE01DF91CF911F910F9109948F929F92CF
:10134000AF92BF92CF92DF92EF92FF92CF93DF9353
:10135000EC014A015B01DB01CA0147E1B595A795A4
:10136000979587954A95D1F79927AA27BB27009784
:10137000A105B10521F080589C4FAF4FBF4F188297
:1013800019821A82B501A40125E0440F551F661F7A
:10139000771F2A95D1F74B83B501A40133E07595EA
:1013A0006795579547953A95D1F74C83B501A401B8
:1013B000EBE07595679557954795EA95D1F74D837D
:1013C000B501A401F3E17595679557954795FA9591
:1013D000D1F74F706C017D0124E0CC0CDD1CEE1CBC
:1013E000FF1C2A95D1F74C294E836C017D0134E016
:1013F000F594E794D794C7943A95D1F720E030E07C
:10140000A901C501B4010E94481687FD0EC0CF8214
:1014100088E090E0DF91CF91FF90EF90DF90CF9048
:10142000BF90AF909F908F9008958C2D80688F8390
:10143000EFCFEF92FF920F931F93CF93DF937C0137
:101440008B01FC014281538164817581C8010E9436
:101450009E09EC01F7014681578160857185C801BD
:101460008C0F9D1F0E949E09C80FD91FF70142854E
:10147000538564857585C8018C0F9D1F0E949E0948
:101480008C0F9D1FDF91CF911F910F91FF90EF90D7
:1014900008954F925F926F927F928F929F92AF9238
:1014A000BF92CF92DF92EF92FF920F931F93CF9351
:1014B000DF93EC017B018A81FB0180838B81818337
:1014C0008C8182838D8183833496412C512C32010F
:1014D00004E010E09F012F5F3F4FCF010296DF0134
:1014E0001396A8010C5F1F4F8A809B80AC80BD8043
:1014F000481459046A047B04C8F4AA85BB85A40F68
:10150000B51F14974C9111962C91119712969C919E
:10151000129713968C9140832183928383838FEF5C
:10152000481A580A680A780A3496D4CF4C85408302
:101530004D85F90140832E85FC0120838F858C9396
:10154000F701E00FF11F412C512C3201AF019F0137
:101550002F5F3F4FCF010296DF0113960C5F1F4FA5
:101560008C849D84AE84BF84481459046A047B042F
:10157000D8F4CF01841B950BAC89BD89A80FB91F86
:101580003C9111962C91119712969C91129713965B
:101590008C9130832183928383838FEF481A580A7A
:1015A000680A780A3496D3CF4E8940834F89F9016F
:1015B0004083288DFC012083898D8C93412C512CF4
:1015C00032018E899F89A88DB98D481659066A0601
:1015D0007B0680F55201AA0CBB1CEC8DFD8DEA0D3B
:1015E000FB1DA081B181FD0101900020E9F7319739
:1015F0006F01CA1ADB0AA60170E060E0C701800F24
:10160000911F0E94AE060C5F1F4F8C8D9D8DA80E02
:10161000B91EF50160817181A601C701800F911F7C
:101620000E9400180C0D1D1DFFEF4F1A5F0A6F0A74
:101630007F0AC7CFC801DF91CF911F910F91FF9013
:10164000EF90DF90CF90BF90AF909F908F907F9062
:101650006F905F904F900895EF92FF920F931F93BA
:10166000CF93DF938C017B01DC0112962C911297B2
:10167000FB012193CF011396ED91FC91EF010990AD
:101680000020E9F72197CE1BDF0BAE0170E060E090
:101690000E94AE06D80113966D917C91AE01C701F0
:1016A00005960E940018CE010596DF91CF911F91FB
:1016B0000F91FF90EF900895CF92DF92EF92FF92FB
:1016C0000F931F93CF93DF936C01EB01DC01129614
:1016D0008C911297888313968C9113978983149613
:1016E000ED91FC91DF010D900020E9F78D01015093
:1016F00011090E1B1F0BA80170E060E0CE010296DD
:101700000E94AE06F60164817581A801CE0106969D
:101710000E940018C8010696F601A681B781FD0156
:1017200001900020E9F731977F01EA1AFB0AA7012F
:1017300070E060E08C0F9D1F0E94AE06065F1F4F99
:10174000D60116966D917C91A701CE01800F911F55
:101750000E9400180E0D1F1DF601A085B185FD0128
:1017600001900020E9F731977F01EA1AFB0AA701EF
:1017700070E060E0CE01800F911F0E94AE060C5F0A
:101780001F4FD60118966D917C91A701CE01800F55
:10179000911F0E940018C701800F911FF6016285FA
:1017A000438534852585C80FD91F688349833A83CB
:1017B0002B830496DF91CF911F910F91FF90EF90B3
:1017C000DF90CF9008952F923F924F925F926F9249
:1017D0007F928F929F92AF92BF92CF92DF92EF92C1
:1017E000FF920F931F93CF93DF93CDB7DEB72E9762
:1017F0000FB6F894DEBF0FBECDBF8C016B01DB01CD
:101800008D909D90AD90BC90FC0182819381A481CC
:10181000B58188159905AA05BB0570F4B401660F5A
:10182000771F660F771F828593850E944317D80123
:101830001B969C938E931A97F80182829382A482BE
:10184000B582C60140E050E0BA01A4E0EA2EF12CD6
:1018500098012A5F3F4FDC011596EC91159716967B
:101860004C901697512C712C612C32015524442434
:101870005E2A1496EC9114974E2A1796EC917E2AC4
:10188000D7011701E4E02E0E311C71010496F80116
:1018900082809380A480B580481559056A057B0530
:1018A000A8F446825782608671861497A284B38416
:1018B000AA0DBB1DE4E0BE2EF90101900D92BA9471
:1018C000E1F74F5F5F4F6F4F7F4FC5CF84859585A1
:1018D000A685B78584159505A605B70570F4B201F0
:1018E000660F771F660F771F848995890E944317BB
:1018F000D80155969C938E935497F801448655864B
:1019000066867786C601820D931D412C512C3201CB
:101910001C019801205F3F4FDC0111966C911197DB
:1019200012968C901297912CB12CA12C54019924D1
:101930008824962A6C91862A13966C91B62AB4E074
:10194000EB0EF11CF80144855585668577854416B4
:10195000550666067706C0F4808A918AA28AB38A01
:10196000BC0162197309A489B589A60FB71F64E089
:10197000F90101900D926A95E1F7BFEF4B1A5B0AEE
:101980006B0A7B0A0496C8CF86899789A08DB18D92
:1019900088159905AA05BB0560F4B401660F771F89
:1019A000848D958D0E944317D8015D969C938E93EC
:1019B0005C97F801868A978AA08EB18E412C512CB3
:1019C00032011801FAE12F0E311CF801868997893E
:1019D000A08DB18D481659066A067B0608F05CC0DA
:1019E000B6016E0D7F1DCE0101960E947D06970106
:1019F0002C5F3F4F3E872D8789809A80AB80BC80CB
:101A0000C901032E000CAA0BBB0BAC01BD01480D94
:101A1000591D6A1D7B1D49875A876B877C87F90191
:101A2000EC0DFD1D9F012C193D09B90190E080E0EE
:101A300029853A854B855C8562177307840795076E
:101A400028F42191DF0112972C93ECCFED84FE84D2
:101A5000E80CF91CF601EE0DFF1D319710828D8503
:101A60009E8501978C0D9D1DD8015B969C938E934E
:101A70005A97C201880F991F5C96ED91FC91E80F6F
:101A8000F91FD1018D919C9191838083BFEF4B1AF7
:101A90005B0A6B0A7B0A99CFC7012E960FB6F894A2
:101AA000DEBF0FBECDBFDF91CF911F910F91FF9091
:101AB000EF90DF90CF90BF90AF909F908F907F90EE
:101AC0006F905F904F903F902F9008952F923F928C
:101AD0004F925F926F927F928F929F92AF92BF923E
:101AE000CF92DF92EF92FF920F931F93CF93DF93EA
:101AF000CDB7DEB7A6970FB6F894DEBF0FBECDBF49
:101B00008C010E9488054B015C0198012557374FD5
:101B10003E8B2D8BF90180819181A281B38175016A
:101B20006401C81AD90AEA0AFB0AD701C601893F2B
:101B30009A42A105B10510F035971082180134E8DA
:101B4000231A37EF330AD1018D919C91892B79F0BB
:101B5000F801E157F74F80819181A281B381881507
:101B60009905AA05BB0518F4F101118210829801AC
:101B70002C57374F3A8B298BA8014058574F5C8B15
:101B80004B8BC8014896988F8F8BD801AA57B74FB7
:101B9000BC8FAB8FF801EC56F74FFE8FED8F215FB6
:101BA0003F4F38A32F8F42505109588B4F8786598A
:101BB000974F9A8F898F1996BAA3A9A3A50194016B
:101BC0002C5E3F4F4F4F5F4F2BA33CA34DA35EA313
:101BD000F80184899589A689B789892B8A2B8B2B53
:101BE000B9F5D80112968D919C91DC01ED91FC9193
:101BF0000284F385E02D09959C0197FF3DC0F80113
:101C0000EA57F74F8081882301F17801B9E7EB1A91
:101C1000B7EFFB0AF70180819181A281B381A50111
:101C20009401281B390B4A0B5B0BDA01C901853C77
:101C30009940A105B10548F0C8010E944506D701A9
:101C40008D929D92AD92BC92139790E080E0B6C1C8
:101C50000E948805681979098A099B09F801C488D6
:101C6000D588E688F788C616D706E806F90608F08C
:101C7000B8CF8EEF9FEFA2C1A989BA898D919C91AF
:101C80001197820F931F8D939C93F1014081518195
:101C900047305105F9F4A98DBA8D8D919C9111971A
:101CA000AC014F5F5F4F4D935C93800F911FFC0120
:101CB000208FAF85B8898D919C91119701978D9355
:101CC0009C93892B09F084CF88E090E0F101918307
:101CD00080837ECF4115510521F52F3F310581F4D9
:101CE00081E090E091838083CBA0DCA0EDA0FEA0FA
:101CF000A9A1BAA1CD92DD92ED92FC92139768CF83
:101D00000E948805681979098A099B096938734115
:101D10008105910508F45CCFF801EA57F74F10826E
:101D2000A8CF4130510589F42E3F310519F482E0E6
:101D300090E0CCCF11821082EB8DFC8D80818111DF
:101D400047CFC8010E94450643CF4230510591F468
:101D5000AF85B8892D933C93E98DFA8D118210825D
:101D600083E090E0D1018D939C93E989FA893183D6
:101D700020832ECF4330510571F4322F2227AF85B7
:101D8000B8898D919C911197280F391F2D933C9301
:101D900084E090E09BCF4430510579F460E071E03D
:101DA0000E94D9168F3F910529F485E090E0918338
:101DB00080830ECF118210820BCF4530510569F41C
:101DC000AB89BC892D933C9386E090E0918380831E
:101DD000A989BA892D933C93FBCE46305105A1F4D5
:101DE000322F2227EB89FC8980819181280F391FAE
:101DF0003183208387E090E0D1018D939C93EF8520
:101E0000F889808191815DCF4830510509F0E0CE9D
:101E10001182108260E071E00E94D9168F3F910517
:101E200009F0D6CEAB89BC89ED91FC91309709F0D1
:101E3000DEC0C8010E94450682E391E09A8389834F
:101E40001C821B828AE192E09E838D8398878F8318
:101E50009A8789871B861C861D861E866801B8EEB8
:101E6000CB1AB7EFDB0A7801E6EBEE1AE7EFFE0AD2
:101E7000412C24E0522E612C712CD601ED91FC9165
:101E80003097A9F1848195819C838B838081918196
:101E90009E838D8382819381DC01ED91FC9104808E
:101EA000F581E02D099598878F83D601ED91FC91FE
:101EB00082819381DC01ED91FC910680F781E02D18
:101EC00009959A8789874B865C866D867E86D601C2
:101ED000ED91FC9160857185D801ED91FC910190A7
:101EE000F081E02DAE014F5F5F4FC8010995B2E070
:101EF000CB0ED11CEC14FD0409F0BFCF412C94E0B3
:101F0000592E612C712CF701A081B1811097E1F15C
:101F100012968D919C9113979C838B8314968D912F
:101F20009C9115979E838D83ED91FC911197048070
:101F3000F581E02DCD01099598878F83D7018D918B
:101F40009C91DC01ED91FC910680F781E02D0995D3
:101F50009A8789874B865C866D867E86D801ED914F
:101F6000FC91C080D180F70180819181DC01ED91ED
:101F7000FC910280F381E02D0995AE014F5F5F4F28
:101F8000BC01C801F6010995F2E0EF0EF11CE21464
:101F9000F30409F0B8CFF801EA57F74F81E08083E6
:101FA000319680829182A282B382AD89BE898D9260
:101FB0009D92AD92BC9213978FEF9FEFA6960FB6AE
:101FC000F894DEBF0FBECDBFDF91CF911F910F916F
:101FD000FF90EF90DF90CF90BF90AF909F908F9049
:101FE0007F906F905F904F903F902F900895EA30D0
:101FF000F10509F0A1C08EE391E09A8389831B82E9
:102000001C821D821E821F82188619861A860E94D3
:102010008805F801C084D184E284F3849B01AC017B
:102020002C193D094E095F0969017A016F89788D84
:10203000CE0101960E944108C701B60128EE33E0A7
:1020400040E050E00E94ED1669017A019B01AC016D
:102050008B819C81AD81BE818C0D9D1DAE1DBF1DF0
:102060008B839C83AD83BE8360E472E48FE090E059
:102070000E94C916CF80D884E984FA84DC01CB01A0
:102080008C0D9D1DAE1DBF1D8F839887A987BA87B4
:102090000E948805CF80D884E984FA8436E3D31A75
:1020A00035E6E30A34ECF30A28EE33E040E050E092
:1020B0000E94ED1629013A019B01AC0160E472E433
:1020C0008FE090E00E94C916A7019601261B370BEE
:1020D000480B590BCA01B9012B813C814D815E81AE
:1020E000215031094109510969017A01C418D50803
:1020F000E608F7082601370120E03AEC4AE95BE3FD
:102100000E94ED16420E531E641E751ED8011C96C9
:102110004D925D926D927C921F97F801608B718B4E
:10212000828B938B0E948805AD89BE896D937D93C8
:102130008D939C9313974CCDE630F10559F46F893C
:10214000788D8D8D9E8D0E94E30B81E0EF8DF8A13F
:1021500080833ECDEB30F10521F4AB8DBC8D1C921C
:1021600037CDEF53FC4FEE0FFF1FE00FF11F8081C3
:102170009181009709F42CCDDC01ED91FC91019047
:10218000F081E02D6F89788D099522CD1F920F92F5
:102190000FB60F9211248F939F938091E10090913D
:1021A000E100937F9093E10083FF0FC01092E9005C
:1021B00091E09093EB001092EC0092E39093ED008D
:1021C0001092020398E09093F00082FF22C093E007
:1021D0009093E9009091F200992319F09AE390937B
:1021E000E8009091F302992341F09091F30291500D
:1021F0009093F302911101C05D9A9091010399238C
:1022000041F090910103915090930103911101C00D
:10221000289A84FF18C08091E2008E7E81608093AE
:10222000E2008091E1008F7E8093E1008091F402D2
:102230008E7E80618093F4029F918F910F900FBEEC
:102240000F901F90189580FFF7CF8091E2008E7E4F
:1022500080618093E2008091E1008E7E8093E100B6
:102260008091F4028E7E8160E5CF1F920F920FB6AF
:102270000F921124CF92DF92EF92FF920F931F9350
:102280002F933F934F935F936F937F938F939F937E
:10229000AF93BF93EF93FF93CF93DF93CDB7DEB7A9
:1022A0006C97DEBFCDBF1092E9008091E80083FFFC
:1022B00025C068E0CE0145960E949F0282EF809380
:1022C000E8008D8987FF39C09091E80090FFFCCF2E
:1022D000982F907609F034C19E894F89588D2F89A7
:1022E000F88C911131C0803861F58091F2028093B1
:1022F000F1001092F1008EEF8093E8006C960FB61B
:10230000F894DEBF0FBECDBFDF91CF91FF91EF916B
:10231000BF91AF919F918F917F916F915F914F91FD
:102320003F912F911F910F91FF90EF90DF90CF90F1
:102330000F900FBE0F901F9018959EEF9093E8009E
:10234000C7CF1092F100D5CF913059F48111D3CF7E
:102350004130510581F68091F2028D7F8093F20227
:10236000CACF933049F48111C6CF4130510519F6D7
:102370008091F2028260F2CF953041F48091E800C2
:1023800080FFFCCF20682093E300B5CF963009F0A2
:10239000A9C00B8D1C8D22E01092E9001092F00272
:1023A0001092EF02F2122EC01092EE021092ED0285
:1023B0000E946E021F8299E09983FA8291E09E83C7
:1023C00090EA98879AEF99872091EF023091F00276
:1023D000275F3F4F3C832B838D831092E90010923F
:1023E000F0021092EF021093EE020093ED0249E02A
:1023F00050E0BE016F5F7F4F80E00E9448020E9464
:102400006E0279CF1093EE020093ED020E9452010A
:10241000DC0112960D911C910115110509F451C1B1
:10242000D801ED91FC910480F581E02DBE016B5E39
:102430007F4FC8010995009709F03EC1F80100855A
:102440001185EACFF3E0FF120EC08F89882309F4CB
:1024500040C0823061F440E860E18FE291E00E9488
:102460001502811148CF81E28093EB0047CF813084
:1024700029F440E86BE083E291E0F1CF833099F7F3
:102480000E945201DC011296ED90FC908E010F5FCC
:102490001F4F6801E114F10479F0D701ED91FC912F
:1024A0000680F781E02DB801C7010995080F111DBD
:1024B000F701E084F184EECFD8011C92F60101907F
:1024C0000020E9F73197BF016C197D0940E0C60192
:1024D000C6CF6DE071E0FB01449150E080E80E94BE
:1024E000480209CF973009F4BECF983021F481E03B
:1024F0008093F10000CF993009F0FDCE837009F090
:10250000B2CFE3E5F1E081E031E096E321912223CF
:1025100071F08093E9003093EB00DF0111972C916B
:102520002093EC009093ED008F5F873079F78EE772
:102530008093EA001092EA008F8980930203DBCE39
:102540008B8D9C8D1092E9001092F0021092EF0298
:102550009093EE028093ED02898D811192C08E8955
:102560009D89913A49F4813209F07DCF47E050E0EE
:1025700064E071E080E0B3CF913209F074CF833230
:1025800069F48F89988DB0E0A0E08093000190936A
:102590000101A0930201B0930301ADCE803269F432
:1025A0008091E80082FFFCCF67E084E091E00E9428
:1025B0009F028BEF8093E8009ECE823209F09BCE83
:1025C0008F8980930B01EEEFFFE7859194918B3F0C
:1025D0009C4D51F1E0E0F8E08091040190910501FB
:1025E000A0910601B0910701803B9440A105B1057F
:1025F000F1F480910B0180FD1AC0EE3F8AE0F807EC
:1026000089F587E797E791838083809160008093C5
:10261000F10288E19BE00FB6F894A89580936000E2
:102620000FBE9093600067CEEEEFFAE0D5CF8081C9
:1026300091818737974709F05ECEA8958091600019
:102640008861809360008091F10280936000EE3F8A
:102650002AE0F20789F08091FE0A9091FF0A9183A7
:10266000808349CE808191818737980751F290937A
:10267000FF0A8093FE0AC5CF1092FF0A1092FE0A4D
:102680003ACE0E945201DC0112960D911C91011567
:10269000110509F4E8CED801ED91FC910190F0818B
:1026A000E02DBE016B5E7F4FC8010995811123CEDD
:1026B000F80100851185EBCF181619060CF41BCE16
:1026C000D2CEF1E0FF12BECE61E171E004CF1F92E5
:1026D0000F920FB60F9211242F933F934F935F9356
:1026E0006F937F938F939F93AF93BF93EF93FF93DA
:1026F00083E593E00E942A03FF91EF91BF91AF9190
:102700009F918F917F916F915F914F913F912F9109
:102710000F900FBE0F901F9018951F920F920FB63B
:102720000F9211242F938F939F93EF93FF93E09138
:102730006303F09164038081E0916903F0916A037F
:1027400082FD1BC0908180916C038F5F8F732091FD
:102750006D03821741F0E0916C03F0E0ED5AFC4FFD
:10276000958F80936C03FF91EF919F918F912F91A3
:102770000F900FBE0F901F9018958081F4CF1F927D
:102780000F920FB60F9211242F933F938F939F9325
:10279000AF93BF938091E5029091E602A091E7028A
:1027A000B091E8023091E40223E0230F2D3758F571
:1027B0000196A11DB11D2093E4028093E502909340
:1027C000E602A093E702B093E8028091E9029091BB
:1027D000EA02A091EB02B091EC020196A11DB11D9D
:1027E0008093E9029093EA02A093EB02B093EC028B
:1027F000BF91AF919F918F913F912F910F900FBEFD
:102800000F901F90189526E8230F0296A11DB11D69
:10281000D2CF109206031092050388EE93E0A0E059
:10282000B0E08093070390930803A0930903B0934B
:102830000A032DE531E030930403209303032FEFC7
:102840003FEF3093100320930F0310925603109222
:1028500055038093570390935803A0935903B09363
:102860005A038FE691E090935403809353038DECC9
:1028700090E09093600380935F038CEC90E09093E2
:1028800062038093610388EC90E0909364038093EB
:10289000630389EC90E090936603809365038AEC70
:1028A00090E090936803809367038EEC90E09093A0
:1028B0006A038093690310926C0310926D03109267
:1028C0006E0310926F0389E991E09093090480935D
:1028D000080483E593E090930B0480930A0480E05E
:1028E00091EEA0E0B0E080930C0490930D04A093CF
:1028F0000E04B0930F0410928E0C8DE891E090932B
:102900009D0C80939C0C1092B20C1092B30C109200
:10291000B40C1092B50C1092B90C1092B80CE0E205
:10292000FCE0119211928CE0E235F807D1F7E2E574
:10293000FCE0119211928CE0E438F807D1F7E0E264
:10294000F4E080E298E011928E179F07E1F7E0E251
:10295000F8E011928CE0E032F807D9F710929E0C63
:1029600010929F0C1092A00C1092A10C1092A70C28
:102970001092A60C1092A80C1092A90C1092AA0CFE
:102980001092AB0C1092B10C1092B00C10921C046F
:1029900010921D0410921E0410921F0483EA91E00D
:1029A0009093F1038093F00381E891E09093F70313
:1029B0008093F6031092F8031092F9031092FA0331
:1029C0001092FB031092FC031092FD031092FE0381
:1029D0001092FF031092000410920104109202045E
:1029E0001092030484EB96E0909305048093040412
:1029F00081E090E0909307048093060489ED92E0D3
:102A00009093F5038093F4030895789484B58260DD
:102A100084BD84B5816084BD85B5826085BD85B582
:102A2000816085BD80916E00816080936E00109200
:102A3000810080918100826080938100809181007B
:102A4000816080938100809180008160809380000C
:102A500080919100826080939100809191008160CB
:102A6000809391008091900081608093900080918C
:102A7000C10084608093C1008091C1008260809316
:102A8000C1008091C10081608093C1008091C3002A
:102A900081608093C3008091C00082608093C000F9
:102AA0008091C20081608093C20080917A0084602E
:102AB00080937A0080917A00826080937A0080917E
:102AC0007A00816080937A0080917A008068809398
:102AD0007A00109202031092F2021092F402809196
:102AE000D70081608093D70080EA8093D80089B5B1
:102AF000806189BD89B5826089BD09B400FEFDCFC2
:102B00000E94EF048091D8008F7C80618093D80070
:102B10008091E000807F8093E0008091E1008E7ED4
:102B20008093E1008DE08093E200559A209A89E03D
:102B30000E94F8008AE00E94F8008BE00E94F800F2
:102B400065E970E089E00E9428046BE170E08AE0AA
:102B50000E94280461E870E08BE00E942804C09184
:102B60000A04D0910B04C0900C04D0900D04E090A6
:102B70000E04F0900F0460E079E08DE390E0A7018F
:102B800096010E94ED1621503109410951095695CF
:102B9000479537952795E889F98982E08083C114A4
:102BA00081EED806E104F10421F0211580E1380717
:102BB00098F0E889F989108260E874E88EE190E085
:102BC000A70196010E94ED162150310941095109D2
:102BD0005695479537952795EC85FD853083EE858D
:102BE000FF852083188EEC89FD8986E08083EA8941
:102BF000FB89808180618083EA89FB89808188608C
:102C00008083EA89FB89808180688083EA89FB89E7
:102C100080818F7D80831092850C1092840C10929D
:102C2000870C1092860C10928B0C10928A0C1092CA
:102C3000890C1092880CE2E5FCE090E080E02191A4
:102C40003191232B01F5FC01EE0FFF1FEE5AF34FDC
:102C500020EF33E0318320838C599F4F9093F3030F
:102C60008093F203C0E0D0E088E094E00E94660D1B
:102C70000E94EF042097C1F30E9416038823A1F35A
:102C80000E940000F1CF019689319105C1F6EACF8B
:102C90000E947C1608F481E008950E94A81688F02E
:102CA0009F5798F0B92F9927B751B0F0E1F0660F10
:102CB000771F881F991F1AF0BA95C9F714C0B13051
:102CC00091F00E94C216B1E008950C94C216672FCD
:102CD000782F8827B85F39F0B93FCCF38695779580
:102CE0006795B395D9F73EF4909580957095619569
:102CF0007F4F8F4F9F4F0895990F0008550FAA0BD4
:102D0000E0E8FEEF16161706E807F907C0F01216FE
:102D10001306E407F50798F0621B730B840B950B01
:102D200039F40A2661F0232B242B252B21F4089556
:102D30000A2609F4A140A6958FEF811D811D0895F3
:102D400057FD9058440F551F59F05F3F71F047955C
:102D5000880F97FB991F61F09F3F79F08795089541
:102D6000121613061406551FF2CF4695F1DF08C060
:102D7000161617061806991FF1CF8695710561057D
:102D800008940895E894BB2766277727CB0197F925
:102D90000895DB018F939F930E941517BF91AF9108
:102DA000A29F800D911DA39F900DB29F900D1124A5
:102DB000089597FB072E16F4009407D077FD09D0ED
:102DC0000E94201707FC05D03EF4909581959F4FF7
:102DD0000895709561957F4F0895A1E21A2EAA1B60
:102DE000BB1BFD010DC0AA1FBB1FEE1FFF1FA217BB
:102DF000B307E407F50720F0A21BB30BE40BF50BB8
:102E0000661F771F881F991F1A9469F76095709540
:102E1000809590959B01AC01BD01CF010895EE0F07
:102E2000FF1F0590F491E02D09940E943417A59F8F
:102E3000900DB49F900DA49F800D911D11240895B5
:102E4000AA1BBB1B51E107C0AA1FBB1FA617B707D0
:102E500010F0A61BB70B881F991F5A95A9F78095EC
:102E60009095BC01CD010895A29FB001B39FC00110
:102E7000A39F700D811D1124911DB29F700D811DA6
:102E80001124911D0895B0E0A0E0E9E4F7E10C946D
:102E900030198C01009751F4CB010E9409188C0164
:102EA000C801CDB7DEB7E0E10C944C19FC01E60F88
:102EB000F71F9C0122503109E217F30708F49DC067
:102EC000D901CD91DC911197C617D70798F0C5307D
:102ED000D10530F3CE0104978617970708F3C61B78
:102EE000D70B2297C193D1936D937C93CF010E940E
:102EF000A518D6CF5B01AC1ABD0A4C018C0E9D1EE5
:102F0000A091BC0CB091BD0C512C412CF12CE12CAA
:102F1000109731F58091BA0C9091BB0C88159905EA
:102F200009F05CC04616570608F058C080910C01A5
:102F300090910D01009741F48DB79EB7409110011B
:102F400050911101841B950BE817F90708F055C043
:102F5000F093BB0CE093BA0CF90171836083A0CFAE
:102F60008D919C91119712966C90129713967C906C
:102F70001397A815B90559F56C0142E0C40ED11C90
:102F8000CA14DB0420F1AC014A195B09DA0112967C
:102F9000159780F06282738251834083D9016D93CB
:102FA0007C93E114F10471F0D7011396FC93EE9336
:102FB000129776CF22968C0F9D1FF9019183808303
:102FC000F301EFCFF093BD0CE093BC0C69CF481632
:102FD000590608F42C017D01D3019ACFCB010E9440
:102FE00009187C01009749F0AE01B8010E94001851
:102FF000C8010E94A518870153CF10E000E050CF10
:10300000FB01DC0102C001900D9241505040D8F705
:1030100008950F931F93CF93DF938230910510F49F
:1030200082E090E0E091BC0CF091BD0C30E020E03B
:10303000B0E0A0E0309799F42115310509F44AC0B9
:10304000281B390B24303105D8F58A819B81611505
:10305000710589F1FB0193838283FE0111C04081D8
:1030600051810281138148175907E0F04817590729
:1030700099F4109761F012960C93129713961C9383
:103080003296CF01DF91CF911F910F910895009358
:10309000BC0C1093BD0CF4CF2115310551F0421733
:1030A000530738F0A901DB019A01BD01DF01F801E6
:1030B000C1CFEF01F9CF9093BD0C8093BC0CCDCF65
:1030C000FE01E20FF31F819391932250310939835E
:1030D0002883D7CF2091BA0C3091BB0C232B41F41D
:1030E00020910E0130910F013093BB0C2093BA0C4C
:1030F00020910C0130910D012115310541F42DB7BE
:103100003EB74091100150911101241B350BE09105
:10311000BA0CF091BB0CE217F307A0F42E1B3F0B87
:103120002817390778F0AC014E5F5F4F2417350739
:1031300048F04E0F5F1F5093BB0C4093BA0C819325
:1031400091939FCFF0E0E0E09CCFCF93DF93009787
:10315000E9F0FC01329713821282A091BC0CB0916D
:10316000BD0CED0130E020E01097A1F42081318109
:10317000820F931F2091BA0C3091BB0C281739078E
:1031800009F061C0F093BB0CE093BA0CDF91CF91D2
:103190000895EA01CE17DF07E8F54A815B819E01B9
:1031A00041155105B1F7E901FB83EA834991599132
:1031B000C40FD51FEC17FD0761F480819181029641
:1031C000840F951FE90199838883828193819B8372
:1031D0008A83F0E0E0E012968D919C91139700971E
:1031E000B9F52D913C911197CD010296820F931F55
:1031F0002091BA0C3091BB0C2817390739F630975B
:1032000051F51092BD0C1092BC0CB093BB0CA09366
:10321000BA0CBCCFD383C28340815181840F951FE8
:10322000C817D90761F44E5F5F4F88819981480FB5
:10323000591F518340838A819B8193838283211507
:10324000310509F0B0CFF093BD0CE093BC0C9ECFDC
:10325000FD01DC01C0CF13821282D7CF2F923F92A3
:103260004F925F926F927F928F929F92AF92BF9296
:10327000CF92DF92EF92FF920F931F93CF93DF9342
:10328000CDB7DEB7CA1BDB0B0FB6F894DEBF0FBE9F
:10329000CDBF09942A88398848885F846E847D84EC
:1032A0008C849B84AA84B984C884DF80EE80FD80EE
:1032B0000C811B81AA81B981CE0FD11D0FB6F89464
:0E32C000DEBF0FBECDBFED010895F894FFCF25
:1032CE00FFFFFFFF00E10000000000000000BE0C49
:1032DE008000726F7373657269616C5F6D73677373
:1032EE002F52657175657374506172616D000000C7
:1032FE0000005C0B4A0747074407000000008708E0
:10330E0041083E083B08000000002C0BEE06EB06C1
:10331E00E80600C180810000000000000066010781
:10332E000587017C01CD018B01A901000000004B36
:10333E0003AC02D90297030A03E802FC0200000064
:10334E0000190A60099C05990500000000490AE36E
:10335E000BE506E20600000000A305660D940500CD
:10336E000000008A099F059C0599053461383432A6
:10337E00623635663431333038346463326231301C
:10338E0066623438346561376631370067656F6D54
:10339E00657472795F6D7367732F566563746F72A0
:1033AE0033004D6573736167652066726F6D2064BF
:1033BE0065766963652064726F707065643A206D1E
:1033CE00657373616765206C6172676572207468DE
:1033DE00616E206275666665722E003966306539DB
:1033EE003862646136353938313938366464663559
:1033FE003361666137613430653439003131616271
:10340E0064373331633235393333323631636436B0
:10341E0031383362643132643632393500726F734B
:10342E0073657269616C5F6D7367732F4C6F6700A4
:10343E003061643531663838666334343839326613
:10344E0038633130363834303737363436303035FD
:10345E0000726F7373657269616C5F6D7367732F42
:10346E00546F706963496E666F0063643731363628
:10347E0063373463353532633331316662636332B9
:10348E0066653561376263323839007374645F6D17
:10349E007367732F54696D65006C65645F73747226
:0434AE006970000041
:00000001FF
